:1000000045C000004BC0000049C0000047C00000D0
:1000100045C0000043C0000041C000003FC00000D8
:100020003DC000003BC0000039C0000037C00000E8
:1000300035C0000033C0000031C000002FC00000F8
:100040002DC000002BC0000029C0000027C0000008
:1000500025C0000023C0000021C000001FC0000018
:100060001DC000001BC0000019C0000017C0000028
:1000700015C0000013C0000011C000000FC0000038
:100080000DC000000BC0000009C0000011241FBEFD
:10009000CFEFD0E1DEBFCDBF3CD047C0B1CFCF93D3
:1000A000DF9300D000D000D0CDB7DEB71A8219821E
:1000B00029813A81281739071CF51C821B822B8164
:1000C0003C81283E3340ACF41E821D822D813E814E
:1000D000283E33403CF42D813E812F5F3F4F3E83CD
:1000E0002D83F4CF2B813C812F5F3F4F3C832B83AB
:1000F000E6CF29813A812F5F3F4F3A832983D8CFBA
:1001000026960FB6F894DEBF0FBECDBFDF91CF911C
:10011000089581E08ABB81E08BBB81E090E0BFDF86
:0E0120001BBA81E090E0BBDFF6CFF894FFCF72
:00000001FF
