S02000004D6963726F636F6E74726F6C6C65725F50726163746963652E737265633C
S113000045C0000054C0000051C000004FC00000B3
S11300104DC000004BC0000049C0000047C00000B4
S113002045C0000043C0000041C000003FC00000C4
S11300303DC000003BC0000039C0000037C00000D4
S113004035C0000033C0000031C000002FC00000E4
S11300502DC000002BC0000029C0000027C00000F4
S113006025C0000023C0000021C000001FC0000004
S11300701DC000001BC0000019C0000017C0000014
S113008015C0000013C0000011C0000011241FBEE1
S1130090CFEFD0E1DEBFCDBF21E0A0E0B1E001C0F1
S11300A01D92A230B207E1F73FD064C0A9CF1F92DE
S11300B00F920FB60F9211248F938091000181113A
S11300C003C081E08093000180910001813019F424
S11300D082E08093000180910001823019F483E072
S11300E08093000180910001833011F4109200018B
S11300F08F910F900FBE0F901F9018958FEF87BBB5
S113010011BA82B3816082BB11BE83B78B6683BF91
S1130110EAE6F0E082E0808380818260808389B7B0
S1130120816089BF7894089510920001E7DF84E626
S11301308093010180910001813059F028F08230D0
S113014019F0833079F0F6CF88B38F7788BB11BE6E
S1130150F1CF88B3806888BB8CE48093010183EB82
S113016081BFE8CF88B38F7788BB86E6809301018F
S10B017081BFE0CFF894FFCF3A
S9030000FC
